:020000040000FA
:100000000000032065050000654000007905000040
:100010007B0500007D0500007F050000000000005A
:10002000000000000000000000000000810500004A
:100030008305000000000000850500008705000022
:10004000890500008D050000910500009505000060
:10005000990500009D050000A1050000A505000010
:10006000A9050000AD050000B1050000B5050000C0
:10007000B9050000BD050000C1050000C505000070
:10008000C90500004D0600004D0600004D060000A9
:100090004D0600004D0600004D0600004D06000014
:1000A000CD050000D1050000D5050000D9050000F0
:1000B000DD050000E1050000E5050000E9050000A0
:1000C000ED050000F1050000F5050000F905000050
:1000D000FD05000001060000050600004D060000B9
:1000E0004D0600004D0600004D0600004D060000C4
:1000F0004D0600004D0600004D0600004D060000B4
:100100004D0600004D0600004D0600004D060000A3
:100110004D0600004D0600004D0600004D06000093
:100120004D0600004D0600004D0600004D06000083
:100130004D0600004D0600004D0600004D06000073
:100140004D060000090600000D0600001106000023
:1001500015060000190600004D0600004D060000BF
:100160004D0600004D0600001D060000210600009F
:1001700025060000290600002D06000031060000BB
:1001800035060000390600003D060000E53B000092
:10019000D13B0000BD3B00004D0600004D060000B5
:1001A0004D0600004D0600004D0600004D06000003
:1001B0004D0600004D0600004D0600004D060000F3
:1001C0004D0600004D0600004D0600004D060000E3
:1001D0004D0600004D0600004D0600004D060000D3
:1003F0004D0600004D0600004D060000FFFFFFFF08
:10040000FFFFFFFFFFFFFFFFFFFFFFFFFEFFFFFFFD
:1004100000F002F800F098F80AA090E8000C82447E
:100420008344AAF10107DA4501D100F08DF8AFF25B
:10043000090EBAE80F0013F0010F18BFFB1A43F0C2
:1004400001031847D0810000F0810000103A24BF5A
:1004500078C878C1FAD8520724BF30C830C144BF29
:1004600004680C607047000000230024002500266B
:10047000103A28BF78C1FBD8520728BF30C148BF07
:100480000B6070476E2900F05687702900F061827A
:10049000662906F04D86652906F04A86672906F02A
:1004A0004786612906F0468603681B0A28BF41F08B
:1004B0008001692900F0D281642900F0CF8175297B
:1004C00000F0CC816F2901F04E82782900F02D8256
:1004D000E92901F0E981E42901F0E681F52901F03B
:1004E000E381EF2901F04B82F82900F02C820368A8
:1004F000DB0928BF41F08001632901F08787732958
:1005000001F08C87E32901F09787F32901F09C879C
:10051000002070471FB506F006FE9DE8030000F0BE
:1005200019FE01F03FFD04000020002106F02CFD23
:10053000401C60600020002106F010FDE06001F02A
:1005400075FC00F0C7FD1FBD05F04AFB114603B462
:1005500005F055FB03BCFFF7DDFF02F093FE05F04D
:10056000C9FD000072B63A483A4901603A488047EE
:1005700062B63A480047FEE7FEE7FEE7FEE7FEE721
:10058000FEE7FEE7FEE7FEE735480047354800474F
:10059000354800473548004735480047354800474B
:1005A000354800473548004735480047354800473B
:1005B000354800473548004735480047354800472B
:1005C000354800473548004735480047354800471B
:1005D000354800473548004735480047354800470B
:1005E00035480047354800473548004735480047FB
:1005F00035480047354800473548004735480047EB
:1006000035480047354800473548004735480047DA
:1006100035480047354800473548004735480047CA
:1006200035480047344800473348004732480047C0
:1006300031480047304800473048004730480047BD
:10064000304800473048004730480047FEE7000088
:1006500008ED00E000000000F1420000110400007D
:100660003D3A0000913A00009D3A0000A93A00008E
:10067000B53A0000C13A0000CD3A0000D93A000076
:10068000E53A0000F13A0000493A0000553A00000E
:10069000613A00006D3A0000793A0000853A0000A6
:1006A0004D060000F93B0000293C0000014200001B
:1006B00051420000C13F00007D3F00004D06000098
:1006C000194300004D060000314300004D060000B4
:1006D000494300004D060000614300004D06000044
:1006E000A1420000794300004D0600009143000044
:1006F0004D060000593C0000F1320000C5410000E9
:100700004D0600004D0600004D0600004D0600009D
:1007100000000000000000000000000000000000D9
:100720000000000000487047CC07002070B5064666
:1007300000F0F4FC056806F10B0020F00704B44259
:100740009CBF002070BD2B466A68BAB11068A042F9
:1007500010D304F1080188423CBF5068586007D3A9
:100760005168101941601168091B016058601460DC
:10077000101D70BD13465268002AE7D12146284655
:1007800000F0D4FC0028DED170BD70B50446051F12
:1007900000F0C4FC0068002C14BF446870BD002C3D
:1007A00018BFAC423CBF20466468F8D301680A1801
:1007B000AA4218BF456003D12A680546114401606A
:1007C00028684119A1421CBF6C6070BD61686960F6
:1007D00021680844286070BD7CB51D4616460C0093
:1007E000009001D02044401E074B7B442A466946B6
:1007F0000190304600F0C7FF05461CB10020694655
:1008000000F0D4FF28467CBDC90F00000B4601460E
:10081000184600F0D9BF00000FB4044910B503AA70
:10082000029800F0D1FF10BC5DF814FB24080020F2
:100830000FB41CB5084B06AA7B4469460090059886
:1008400000F0A1FF04460020694600F0AFFF2046FB
:100850001CBC5DF814FB0000710F00002DE9F04195
:100860000646002410687529314616A510D000F000
:10087000CEFC002802DA404213A507E031688A075F
:1008800001D512A502E0490704D511A5012401E014
:1008900000F0C6FC00210A2206F1240709E0B0FBA3
:1008A000F2FCB0FBF2F302FB1C0030307854184627
:1008B000491C0028F3D123462A463046BDE8F041C2
:1008C00000F0E0BC000000002D0000002B00000044
:1008D00020000000F0B40D460188090502D5214C26
:1008E0007C4402E01F4C7C440E34002100F12406BD
:1008F00008E002F00F071209E75D42EA03721B09E4
:100900007754491C52EA0307F3D1027800231207F7
:1009100004D5702D06D009B1022311342246F0BC53
:1009200000F0B0BC01231034F8E770B504460D4662
:100930002146106800F074FC024629462046BDE8B6
:1009400070400023C6E7D21D22F00703D3E900233D
:10095000C0E70368126843F0200303600823C36103
:100960000023B7E7987100002DE9F05F894604463F
:100970004FF0000ADFF874B1FB44C0F820A0204615
:10098000E1688847002874D0252806D0D4E90121E1
:100990009047206A401C2062F1E700265F4620460F
:1009A000E16888472028054607DB312D05D27819F4
:1009B00010F8200C08B10643F1E7B00701D526F086
:1009C0000406C4F81CA00027C4F818A02A2D09D0DA
:1009D000284605F00DF938B304EB8708303DC8F818
:1009E000185019E059F8041B204604EB8702916166
:1009F000E1688847012F054618D1E069002820DA10
:100A000026F020061DE0D8F8180000EB800005EB6A
:100A100040003038C8F818002046E168884705468D
:100A200005F0E6F80028EED1012F0AD02E2D08D1CE
:100A30002046E16888477F1C0546022F46F02006C5
:100A4000C4DBA069002803DA404246F00106A06139
:100A5000F00701D026F010066C2D0BD0682D09D0C0
:100A60004C2D39D06A2D35D0742D35D07A2D33D018
:100A700016E038E0E1682F4620468847B842054630
:100A800009D16C2F26D04FF48060E16806432046E0
:100A90008847054604E06C2F1AD04FF48070064357
:100AA0000DB3A5F14100192802D8203546F400669F
:100AB0004A462946204626604E46FFF7E3FC80B1B1
:100AC00001280BD0F61D26F0070000F1080956E7B3
:100AD0004020E4E78020D8E70020D6E706F10409AB
:100AE0004DE7284652E7206ABDE8F09F28710000D4
:100AF0000FB400B58DB010A9099000910B904FF084
:100B0000FF300A9000200C90064878440690064872
:100B100078446A4607900F9909A800F04FFF0DB07E
:100B20005DF814FBCF0E0000E70E00002DE9FF5F1B
:100B30001D464FF0FF3B91464FF000085F46D5E958
:100B40000146A96901987F1C8847296A824688471F
:100B50000028F6D1BAF1FF3F0CD0002E24F4C06477
:100B600019DD600614D5BAF12B0F09D0BAF12D0F9B
:100B70000ED103E0584604B0BDE8F09F44F4806411
:100B8000A96901987F1C8847761E8246002E02DDE7
:100B9000BAF1300F03D0B9F1000F26D032E0A969C5
:100BA000761E01987F1C44F400748847002E82460C
:100BB00005DDBAF1780F06D0BAF1580F03D0B9F1BC
:100BC000000F10D01EE0B9F1000F02D0B9F1100FE4
:100BD00018D1A969761E01987F1C24F400748847F7
:100BE0008246102002E0082000E00A20814609E049
:100BF000A96908FB0908761E01987F1C44F400745B
:100C000088478246002E05DD4946504600F0C2FE68
:100C10000028EDDAE96901988847A00502D46FF051
:100C20000100A8E7E00725D1600613D5600502D5CD
:100C3000C8F1000000E0404629680A1D2A600968E2
:100C4000220501D5087015E0220701D5088011E0C2
:100C500008600FE02868011D29600068210502D5A1
:100C600080F8008006E0210702D5A0F8008001E0AE
:100C7000C0F8008038467EE770B50446C06881073A
:100C800013D0800601D5A56A04E0A1696068084414
:100C90002169451A204601F085F8002206462946BA
:100CA000204600F0ABFF304670BD002070BD70B52F
:100CB00010B1BDE87040DFE70025074C6E1E07E06D
:100CC0002046FFF7D9FF00B13546206D20F0010422
:100CD000002CF5D1284670BDD007002070B50D4618
:100CE000044604E0294605F015FA401C04D014F827
:100CF000010B0028F6D170BD4FF0FF3070BD000031
:100D00002DE9F0410C4607461646104600F078F8EB
:100D10002078611C61280AD0722802D077283CD143
:100D200002E00125002405E00225042402E0082455
:100D300048F2020511F8010B2B2806D0622809D0D1
:100D400011F8010C74280AD00BE045F0030544F0BB
:100D50000204EFE745F0040544F00104EAE744F03B
:100D600010043846214604F0B5FF411C15D000217F
:100D7000316171604FF40071F560F16170612007BD
:100D800004D530460222002100F038FF306D40F0DB
:100D9000010030653046BDE8F0810020FBE72DE919
:100DA000F0410D460646104C206DC10704D04108A5
:100DB00004D020F00104F7E722460EE05420FFF7AC
:100DC000B5FC07000ED0206D47F001010843542107
:100DD0002065384600F016F93A4629463046BDE807
:100DE000F0418DE70020D6E7D007002011B14FF485
:100DF000807201E04FF480624FF4007300F07ABF1C
:100E00002DE9F04704464FF000094FF0FF37C56861
:100E1000D4E90486A80707D0204600F0C3FF304677
:100E200004F0F2FE002802DA3846BDE8F087280513
:100E300002D54046FFF7A9FC4C21204600F0E2F81D
:100E4000206D20F0010020654846EEE70EB505460E
:100E500014460E4613A001F09BFD284601F098FDB4
:100E600016A001F095FD304601F092FD15A001F0AD
:100E70008FFD00218DF80B100A210DF10A008DF86D
:100E80000A1008E094FBF1F201FB124294FBF1F42A
:100E9000303200F8012D002CF4DC01F079FD01F076
:100EA00061F800002A2A2A20617373657274696FE1
:100EB0006E206661696C65643A2000002C206669CA
:100EC0006C6520002C206C696E65200010B5431CF9
:100ED00002E010F8011B71B18107FAD14FF0013225
:100EE00002C88C1A8C4314EAC211F9D0C01A0A063F
:100EF00003D0C01E10BDC01A10BD0A0401D0801E50
:100F000010BD0902FCD0401E10BD40EA010370B5BF
:100F10009B072ED14FF00136042A2AD308C810C9E6
:100F20009D1B9D43121F15EAC61517D0D8B2E1B21A
:100F3000401A50EA056110D198B2A1B2401A50EAA5
:100F400005410AD123F07F4024F07F41401A50EA46
:100F5000052102D1180EA0EB146070BDA342DBD0B6
:100F600018BA21BA884201D9012070BD4FF0FF3074
:100F700070BD0AB9002070BD10F8013B11F8014B9B
:100F800063B1A3420AD1521E08D010F8013B11F8F8
:100F9000014B1BB1A34201D1521EEDD1181B70BDF4
:100FA00010B5203AC0F00B80B1E81850203AA0E804
:100FB0001850B1E81850A0E81850BFF4F5AF5FEA38
:100FC000027C24BFB1E81850A0E8185044BF18C9EB
:100FD00018C0BDE810405FEA827C24BF51F8043B92
:100FE00040F8043B08BF7047D20728BF31F8023BE6
:100FF00048BF11F8012B28BF20F8023B48BF00F87A
:10100000012B70474FF0000200B5134694469646F8
:10101000203922BFA0E80C50A0E80C50B1F120010B
:10102000BFF4F7AF090728BFA0E80C5048BF0CC0B9
:101030005DF804EB890028BF40F8042B08BF704717
:1010400048BF20F8022B11F0804F18BF00F8012B89
:10105000704700004FF0013C50F8042B51F8043B5E
:101060009A4221D1A2EB0C03934313EACC1317D17C
:1010700050F8042B51F8043B9A4215D1A2EB0C0313
:10108000934313EACC130BD150F8042B51F8043BD3
:101090009A4209D1A2EB0C03934313EACC13DBD0A1
:1010A0004FF00000704700BFD01A01BAB1FA81F1C9
:1010B00001F0180122FA01F0CB40C1F12001DBB2AE
:1010C000C0B2C01A2CFA01F3D11A914311EAC3112C
:1010D000E6D1704770B5064C7C44064D7D4403E074
:1010E000206820448047241DAC42F9D170BD000027
:1010F00084760000887600002DE9F04117460E4600
:10110000054633B107FB0354E41B2046B047A54214
:10111000FAD1A5F10800BDE8F08100000048704751
:10112000CC080020704770477047704738B50446B8
:101130000A460020694601F042FC002808BF38BD7D
:1011400002460099204600F031FF012038BD012001
:1011500001F0FEBBF8B501F027FC054600200C4667
:10116000102000BF0646A819A0420DD93246694694
:10117000002001F024FC070008BF01F0E9FB009803
:10118000A04218BF0546C419FFF7C8FF056007460F
:10119000F01D20F007004619284600F00AF8B44276
:1011A00008BFF8BDA21B31463868BDE8F84000F022
:1011B000FDBE00210160C0E901107047102070479A
:1011C00070B5044685690068C10601D5302600E087
:1011D0002026C00707D070BDD4E9012130469047D2
:1011E000206A401C20626D1EF6D570BD70B50446A5
:1011F00085690078C00707D170BDD4E9012120209E
:101200009047206A401C20626D1EF6D570BD0968AB
:101210004A0501D540B27047C905FCD500B27047F8
:1012200009684A0501D5C0B27047C905FCD580B22E
:10123000704770B50C460546012A05D0287880060F
:1012400000D5EA69002302E0012305E05B1C93421C
:1012500002D2E05C0028F9D1A869E618C01AA8619A
:10126000286A184428622846FFF7AAFF04E0D5E957
:10127000012114F8010B9047B442F8D32846FFF738
:10128000B5FF70BD2DE9F0470D46994692460446DC
:1012900000F124080168880604D5E06921F01001F6
:1012A000216000E00120A84201DD471B00E000278B
:1012B000A1697A1902EB0900081AA0612078C0061A
:1012C00002D42046FFF77CFF002608E0D4E9012184
:1012D0001AF806009047206A401C761C20624E4592
:1012E000F4DB2078C0060AD52046FFF769FF06E048
:1012F000D4E9012130209047206A401C2062381E2A
:10130000A7F10107F4DC07E0D4E9012118F8050092
:101310009047206A401C2062281EA5F10105F3DCDD
:101320002046FFF763FF2078000602D50220BDE8C3
:10133000F0870120FBE711680268006A530501D5B8
:1013400008700AE0D30501D5088006E0130603D52E
:10135000C217C1E9000200E0086001207047704731
:101360002DE9FF4F0C461E464FF0FF378BB0D2E9F8
:101370000001DDF860800A908A46C1F30A5505B97C
:101380003D46002108464FF00000BAF1000F00F47E
:10139000400005DA00EB80004FF4400101EA500004
:1013A0004FEA9059B9F1010F00DDB9460A9850EAA9
:1013B0004A000ED044F61050A5F2FF3545432F14D5
:1013C000B8F1000F1ED07542291E1EDDC9F10002C2
:1013D0001CE0B8F1010F4FF0000001D0302103E014
:1013E000F24305E02154401CB042FBDB30460022B2
:1013F000002121540B99C1F80880C1E900200FB0E9
:10140000BDE8F08FBD1B6D1CDEE74A4600DA69427D
:1014100006A801F0D7F906AB93E8070003AB83E811
:10142000070050460A9901F065FB8DE80700A0F51A
:1014300000501F3800900398002D0ADD42F21F0172
:101440004A460844002303A90390684601F0CEFDF4
:1014500009E0A0F500504A461F38002303A9039075
:10146000684601F0D8FD8DE807000004000C03D0A9
:101470004FF0FF30410800E01046B8F1000F03D0F4
:101480000022009215461EE0751E05D400F0A8FD4E
:10149000303262556D1EF9D5B3460122084302D0A1
:1014A00000227F1C04E02078302801D100227F1E1A
:1014B000002A099784D01DE0112D07DA00F090FD75
:1014C000303262556D1C50EA0102F5D1084302D05A
:1014D0000098C8B10EE00021681E05E0235C625C44
:1014E00063542254401E491C8142F7DBAB46A81BC3
:1014F000401E0990002004F80B000B98099AC0F8D0
:101500000880C0E9002B7AE711264FF0000857E762
:101510002DE9F04F88460446D21D22F0070191B014
:10152000D1E90001CDE90A0104F0D6FA02460B9890
:10153000C00F01D02D2007E02068810701D52B20A6
:1015400002E0202101EAC000032A099001D0072A05
:1015500005DB03464146204600F00EFF0BE12078F4
:10156000800601D5E06900E00620B8F1650F8146EC
:1015700006D0B8F1660F18D0B8F1670F70D131E01E
:101580000020B9F1110F009001DB112301E009F1F6
:1015900001030AAA01A90CA8FFF7E2FEDDE90C701D
:1015A000002609F10105834647E001204B460090E3
:1015B0004FF000470AAA01A90CA8FFF7D1FEDDE908
:1015C0000DB00C995D46002610B909F101000D1807
:1015D000B9EB050003D4C0F1FF3609F10105A5EB15
:1015E00009002BE0B9F1010F01DA4FF001090020E9
:1015F000B9F1110F0090484601DD112300E00346C8
:101600000AAA01A90CA8FFF7ABFEDDE90C704D4654
:1016100000268346207800070AD4AB4500DA5D46F1
:1016200001A8012D04DD411911F8011C302907D052
:101630004F4502DA17F1040F04DA012082460FE069
:101640006D1EEEE7002F02DCED1B3E4403E0781C2C
:10165000A84200DD7D1CB81B00F1010A4FF00047D5
:101660002078000703D4AA4501DB4FF0FF3A0021A0
:10167000B7F1004F0DF143088DF8431024D002203C
:101680002B23002F01DA7F422D230A21021EA0F115
:10169000010000DC5FB197FBF1FC97FBF1F201FB6D
:1016A0001C7C17460CF1300C08F801CDEEE7A8F1D0
:1016B000010003702188090501D5452100E065215D
:1016C000A0F1010800F8011C09980FA9A1EB080777
:1016D000FF1D00B10120411901EBEA70A1693844F6
:1016E000081A401EA0612078C00602D42046FFF7E9
:1016F00067FD099828B1D4E901219047206A401C70
:1017000020622078C00622D52046FFF759FD1EE052
:10171000002E04DBB34502DD01A8805D00E030202F
:10172000D4E901219047206A401C2062761CAAF16E
:1017300001005FEA000A0AD100F034FCC0680168C9
:10174000405CD4E901219047206A401C2062281E99
:10175000A5F10105DCDC07E0D4E9012118F8010B53
:101760009047206A401C2062381EA7F10107F3DC75
:101770002046FFF73BFD032011B041E601694A1CFA
:1017800002610878704700B58FB0CDE901310021C2
:10179000059105497944CDE9031011466846FFF7E4
:1017A000E3F80FB000BD0000E5FFFFFF0A6802F894
:1017B000010B0A607047D1E900239A4202D2531C00
:1017C0000B60107070470000074B70B50D467B44EE
:1017D000FFF7D9FF0446284600F020F910B14FF07A
:1017E000FF3070BD204670BD434900002DE9FF5F0A
:1017F00015468A460446DFF8AC80F8440027D8E94D
:1018000000103E46CDE9001010E03AF816106A4686
:1018100002A801F06AF8411C07D02178890603D597
:10182000E269391891420DD80744761C2078800669
:1018300002D5E069B84205DDAE42E6DB3AF81600B3
:101840000028E2D1A069C01BA0612046FFF7B8FCC8
:10185000D8E90010CDE90010002017E03AF8181080
:101860006A4602A801F041F8B0F1FF3F81460BD073
:1018700000250DF1080B05E0D4E901211BF8050056
:1018800090476D1C4D45F7D308F10100B0428046EA
:10189000E4DB206A384420622046FFF7A7FCBDE85D
:1018A000FF9F0000BA6200002DE9F0418046D21D82
:1018B00022F007020025D2E90002F52915A614D06E
:1018C000011E72F1000106DA0023D0EB030063EB86
:1018D000020211A608E0D8F800108B0701D50FA668
:1018E00002E0490701D50EA601251146002408F1A2
:1018F000240704E000F074FB30323A55641C50EACF
:101900000102F7D12B46324621464046BDE8F04160
:10191000FFF7B8BC000000002D0000002B00000005
:101920002000000030B4002100F1240408E002F09F
:101930000705D208303542EA4372DB086554491C7A
:1019400052EA0305F3D10468002310A2250707D546
:10195000A40600D421B1C46901230DA2641EC46190
:1019600030BCFFF78FBC10B5044621461068FFF766
:1019700057FC02462046BDE810400023D2E7D21DA6
:1019800022F00701D1E90023CCE7000000000000AD
:10199000300000003A2800D2303820F02002412ADE
:1019A00001D3A2F13700884201D34FF0FF307047D6
:1019B000026811441378016018467047D1600549E8
:1019C0007944516104497944116200211161114641
:1019D00000F03EBDEDFFFFFFA1060000426842B1EE
:1019E000016811F8013B23B1521EC0E900121846EC
:1019F00070470121C160881E704742685AB1C368B0
:101A0000016843B983688B4205D0491E521CC0E966
:101A10000012002070474FF0FF307047007B00F04D
:101A2000800070472DE9F04705460C46C86820F451
:101A3000201040F48000C860800602D5084600F0FF
:101A4000D4F9E06841F282014FF0FF3901400229E8
:101A500003D0204600F072F9B5E000F42041B1F562
:101A6000004F0FD1C00306D56168E06A884200D8F4
:101A70000846606006E02069E0626060606904F02A
:101A8000E9F8A061A0680022EEB200280DDAE16852
:101A90008B050AD4C043A06041F490302260E0601E
:101AA0006068411C61600670A5E0E06890462260B5
:101AB00040F40050E060206968BB606904F0E6F81B
:101AC000012704F12405A0B1A08910F4407F08D0BB
:101AD000E069FEF72BFE206118B1E06840F4006079
:101AE00016E0E7612561E06820F4407040F4806012
:101AF0000EE0E069FEF71AFE00282061F1D0E068F0
:101B000040F4006010F4407FE06002D140F4807047
:101B1000E06020696060E06825696FF0010AC10536
:101B20001FD56168E06A884200D80846411B04D08E
:101B30002246284600F00CF9F0BBE068010203D50C
:101B4000E562C4E9015854E0691CE1626160E16941
:101B500040F48030491EC4E9021030462E70BDE8C2
:101B6000F087010202D500F480320AE06068411C6F
:101B700061600670E0680A2E40F48030E06006D0B4
:101B80000022E16A6068814203D90B4602E001222B
:101B9000F7E70346A7895B1B7F0503D4E7699F42EC
:101BA00000DDE2B1814200D80146E5620F1AC4E9C6
:101BB0000158002B09DD00E005E0224619462846C1
:101BC00000F0C6F808B14846C9E747B1A069E56228
:101BD0006560C01BA061E06840F01000E060E06854
:101BE000000208D56168A069E562491B0844656088
:101BF000A0615046B3E73046B1E700002DE9F0415F
:101C0000044616460D464769007B80072ED03846AD
:101C100004F03CF850BB3EB3012E02D0022E25D179
:101C200004E0204600F040FE05441DE0384604F084
:101C300011F8E168002841F01001E16005DA204662
:101C400000F07CF80120BDE8F081C9030BD5626883
:101C5000E16A914200D81146A26911442269891AA9
:101C6000814200DD08460544002D01DA0220EAE742
:101C7000E16A6068E268814206D29103E06203D5BE
:101C800022F4003141F01002A6690027AE4213DCB5
:101C9000E16A814201D90B4600E0034603EB060CE2
:101CA0002369ACEB030CAC4506DD814201D98C46BF
:101CB00000E084469C4505D1A760276042F02000E3
:101CC000A5620DE0AD1BE669AE1B8142A66000D99E
:101CD0000846C01A281A20605819606022F02000B7
:101CE00003490840E060002084F84870ABE700003A
:101CF000BFCFD7FF70B5C468A50713D0650211D454
:101D0000B2F5807F09D0B2F5007F06D0B2F5806FC2
:101D100008D1012300F1240106E05D1E6FF07F462B
:101D2000B54201D3012070BD0161C361416024F45B
:101D300070611143C160002070BD0000C16821F4D2
:101D4000001141F08001C160002181600160704795
:101D50002DE9F047814614460E464FF0FF383248D1
:101D6000D5685769054209D03846A16904F080F862
:101D7000002811DB2C48C0430540E5602B46324665
:101D80004946384604F092F8A16920F00042B21AA0
:101D900011440028A16103D02046FFF7CFFF404641
:101DA000BDE8F08770B504460569C06A616888427D
:101DB00000D80846E16821F42011E160C90312D57A
:101DC000A84208D02246411B2846FFF7C1FF10B1A8
:101DD0004FF0FF3070BD0020E562C4E90150E068BB
:101DE00020F48030E060002070BD10B50446C0686B
:101DF00020F02000E060A16AA06988420DD0204652
:101E0000FFF7D0FFE06820F4405040F01000E060A1
:101E1000A06AA0612069E062606044F24001E0686D
:101E20008843E06010BD00001000020010B5424879
:101E30005421FFF7E7F841485421FFF7E3F8404801
:101E40005421FFF7DFF83F493B483C4A3F4B0860CD
:101E50003D490A603A491960531C0365481C1065E6
:101E6000012008653B48344A39A17844FEF748FF11
:101E700020B9384878440A3800F063FD37482F4AC3
:101E800035A17844FEF73CFF20B9344878440A383D
:101E900000F057FD32482A4A2FA17844FEF730FF60
:101EA00020B92F4878440A3800F04BFD40232248DF
:101EB000DC0000212246FFF71DFF20B125487844B1
:101EC000543800F03EFD1D48224640230021FFF714
:101ED00011FF20B121487844543800F032FD1848F1
:101EE000224610230021FFF705FF002806D01C48DA
:101EF0007844BDE81040563800F023BD10BD1048AE
:101F000070B5006D20F001040B48FEF779FF0B4817
:101F1000FEF776FF0A48FEF773FF09E0206D20F018
:101F200001052046FEF76CFF2046FEF72EFC2C46EE
:101F3000002CF3D170BD0000D00700202408002041
:101F400078080020CC000020D0000020D400002021
:101F5000720000007E540000770000006D54000005
:101F60005D54000010B5002000F0E4FCAFF30080E9
:101F7000BDE81040012000F00FB810B500F0F0FCF3
:101F8000BDE8104000F0D1BC08B569468DF80000EE
:101F90000320ABBE08BD000001491820ABBEFEE720
:101FA0002600020000487047D00800200346406821
:101FB0008C46002818BF88423CBF03464068F8D3CF
:101FC00018681844884207D00CF1030020F007007D
:101FD000001D411A521A0146081D0A60FEF7D5BBC2
:101FE00030B5B0F10A024FEA900E71F100034EEAEB
:101FF000817EB0EB0E0061EB91014FEA101E4EEABC
:10200000017E10EB0E0041EB11114FEA102E4EEA4B
:10201000016E10EB0E0041EB11214FEA104E4EEA1B
:10202000014E10EB0E0041EB1141401841F100014F
:102030004FEAD00040EA41704FEAD10110EB800531
:102040004FEA810444EA907444EB01046D1944EBB7
:102050000404521BA3414FF0000348BF0A3200D5CD
:1020600030BD401C41F1000130BD10B5044600F008
:10207000C5FC0068005D00F0010010BD2DE9F04FC7
:1020800004460D46D21D22F0070089B0D0E9009722
:102090004846394603F020FD0246F80F01D02D23B3
:1020A00007E02068810701D52B2302E0202101EA07
:1020B000C0038DF820300BB1012000E00020032A7E
:1020C000824601D0072A04DB2946204600F054F955
:1020D0003FE12078800601D40D2500E0E569C7F3D3
:1020E0000A560D2D49DA00214FEA175B08464FF0DA
:1020F0000000002F00F4400007DA00EB80004FF4EE
:10210000400100EBD07001EA60008115012901DD7A
:102110004FF0FF3100224FEA850CBCF1180F06D3B7
:102120001346ACF118004FF08052C24003E04FF468
:10213000801323FA0CF30CF10C0CBCF1200F04D328
:10214000ACF1200C09FA0CF001E007FA0CF00029C0
:102150004FF0004801DD18B90FE00ED140450CD317
:1021600019EB02095F4121B9404502D19F4329EA99
:102170000209BBEB175F00D0761C2088000502D552
:102180007B48784402E07A487844193808AA30231A
:1021900002F80A30037C0AF10101002E0AF1020A5A
:1021A00053546A4602DC4FF0300101E04FF0310138
:1021B0004FF001088DF8001002D0A6F2FF3603E0C0
:1021C00059EA470100D06B4E002D02DC2178090747
:1021D00004D54FF002082E218DF80110C4460021CD
:1021E0000BE0C7F303433F01C35C491C6D1E02F8BB
:1021F0000830052908F1010801DA002DF1DC002181
:102200000CE000EB1973491C1B786D1E082902F8BD
:1022100008304FEA091908F1010801DA002DF0DC55
:1022200021688B0602D516E0A8F10108E04505DD1E
:1022300002EB080313F8013C302BF5D0B8F1000F86
:1022400009DD02EB080313F8013C2E2B03D109072B
:1022500001D4A8F10108002D05DD3E2102F8081087
:102260006D1E08F10108407C002E02F8080008F1FC
:10227000010804DA2D20764202F8080002E02B2043
:1022800002F808000A214FF47A70864208F101082A
:102290000BDB96FBF0F3303302F8083096FBF0F3DB
:1022A00008F1010800FB136601E0642E0CDB6420DA
:1022B00096FBF0F3303302F8083096FBF0F308F1A8
:1022C000010800FB136601E00A2E06DB96FBF1F025
:1022D000303002F8080008F1010896FBF1F001FB2C
:1022E0001060303002F80800A16908F1010808EB1D
:1022F000050202EB0A00081AA0612078C00602D489
:102300002046FEF75DFF216A08AE01EB0A0020625D
:1023100004E0D4E9012116F8010B9047BAF1010A53
:10232000F7D22078C00602D52046FEF749FF6E4658
:1023300009E016F8010B3E280FD0D4E9012190479F
:10234000206A401C2062B8F10108F2D22046FEF754
:102350004DFF09B00320BDE8F08F206A28442062B9
:1023600003E0D4E90121302090476D1EEBD3F8E75C
:102370004D59000002FCFFFF2DE9F0411F460446C5
:1023800003260168072A01F4006004DB08B116A5E2
:1023900005E016A503E008B115A500E015A521F09C
:1023A00010002060A069C01EA0610FB1401EA06196
:1023B0002046FEF705FF4FB1D4E90121384690478A
:1023C000206A401C2062C01C206206E0206AFAE7F6
:1023D000D4E9012115F8010B9047761EF8D220466A
:1023E000FEF704FFBDE8F0814E414E006E616E00C5
:1023F000494E4600696E660010B5436913B1AFF3EC
:10240000008001E0FEF715FF012010BD127800F1F9
:1024100024010A7000224A700122EDE711684FF092
:10242000FF32E9E710B5436913B1AFF3008001E073
:10243000FFF7DCF9012010BD128800F1240182842D
:102440000022C2840122EDE711684FF0FF32E9E774
:102450002DE9F34F4FF0000A0C4656468DB001208F
:102460000C9001F10C000B9062690B9801219047D0
:10247000051E2DD0252D2CD0216A8847C0B1626958
:102480000B9801219047216A88470028F7D162699B
:10249000411E0B98904700E0761CA1690D98884773
:1024A000216A88470028F7D1E1690D988847DBE762
:1024B000A1690D988847A842074601D1761CD3E749
:1024C000E1690D9888477F1C02D1BAF1000F6FD0E7
:1024D0006BE162690B9800273D46394690472A28F0
:1024E00004D162690B98012190470125DFF8D08261
:1024F00062690B9801219047A0F130010A290AD2A4
:102500004745E5DC07EB870100EB4107303FDFD4AF
:1025100045F01005ECE7E90601D46FF000476C28A0
:102520000AD04C2814D0682815D06A280DD07428F9
:102530001CD07A281AD01DE062690B9801219047BF
:102540006C2802D045F0040514E045F002050DE0CA
:1025500045F020050AE062690B9801219047682840
:1025600002D045F0080505E045F4006562690B9866
:1025700001219047C4E9015765283DD019DC58284E
:102580007AD00CDC452837D004DC252826D0412819
:102590009ED131E046282FD0472899D12CE05B28E6
:1025A00077D0612828D063287CD0642823D15AE0D2
:1025B000F6E06F2848D008DC66281DD067281BD0BD
:1025C000692821D06E2816D127E0702845D07328BD
:1025D00068D0752847D078280DD14DE0A1690D98B5
:1025E0008847252805463FF469AFE1690D9888477B
:1025F0006D1C3FF46AAFD8E00D9923466A466FF030
:102600000100AFF30080C5E045F0400023464FF0E5
:1026100000026060A80736D43EE0E8077FF447AFC9
:102620002068011D21600068290501D506701BE79F
:10263000290701D5068017E7A90703D5F117C0E9D7
:10264000006111E706600FE745F0400023464FF0B8
:1026500008026060A80716D41EE040F60E0125EAC5
:102660000100606016E045F0400023464FF00A028A
:102670006060A80707D40FE045F040006060A8073D
:1026800008D5234610220D996FF00100AFF30080AA
:1026900080E007E0102223460D996FF00100FEF75D
:1026A00045FA77E04FF0000963284F46C8464B468D
:1026B000CB4602D05B2806D038E0E80601D40120E2
:1026C000A060012732E06269D4F80CB00B980121B8
:1026D00090475E2807D14FF0010949466269D4F856
:1026E0000CB00B989047216939B900210A4603AB19
:1026F00043F82120491C0829FADBD8B3216949B3E2
:1027000008F1010862690B98012190475D28F4D116
:10271000B9F1000F09D0002003A951F82020D243BD
:1027200041F82020401C0828F7DB03AB2069002873
:1027300020794FEA40701ED05B462246CDF80080DB
:10274000CDE901970D9900286FF0010020DAAFF371
:1027500000801FE0C11703AA00EBD1614B1121F0EB
:102760001F0102EB8302411A1368012088400343D2
:102770001360C7E719E00D99224600286FF00100A9
:10278000009702DAAFF3008004E0AFF3008001E0CD
:10279000AFF3008000280ADA401C06D10C9820B163
:1027A0004FF0FF300FB0BDE8F08F5046FAE7E90771
:1027B00001D10AF1010A064400200C9054E6000001
:1027C000CCCCCC0C2DE9F047814616468AB0354872
:1027D00078440DC88DE80D0032487844801C03AC65
:1027E0000DC884E80D0041F69B300844372190FB6A
:1027F000F1F290FBF1F5A5F1800501FB12041B3C01
:1028000002D56442012000E00020DFF898A0804655
:102810000027FA44AAF1BE0A0EE0E0070AD03246C9
:10282000684607EB470101230AEB810100F0F3FB47
:102830008DE8070064107F1C002CEED1194F7F44F7
:10284000AE3F19E0E80715D007EB04100DF1180AA8
:1028500090E80E008AE80E00C068F04201D1981995
:1028600008903246012306A903A800F0D4FB03AB6D
:1028700083E807006D10641C002DE3D14FF00103C5
:1028800032466946B8F1000F03A802D000F0AEFB53
:1028900001E000F0C0FBC9E90001C9F808200AB056
:1028A000BDE8F0879053000010B50146C26890075C
:1028B00003D0900607D5886A0AE0FDF733FF0121AF
:1028C0000160881E10BD8B69486818440B69C01AE6
:1028D00091F848301BB191F84910401A10BD11030E
:1028E000FCD50028FADD401E10BD70B516460C461A
:1028F000054600F083F8036893F80101012806D02B
:10290000FF2C0FD8185D68B101202C7070BDD3F872
:1029100007013246214603F2071303442846BDE867
:10292000704018474FF0FF3070BD002801D0FFF70E
:1029300033BB704710B500F083F8BDE81040FFF7D7
:10294000F4BF10B500F094F8BDE81040FFF7EDBFFC
:1029500010B500F0A7F8BDE81040FFF7E6BF000093
:1029600010B5002102A000F051F8012010BD0000B8
:102970005349475056464E3A205075726520766945
:10298000727475616C20666E2063616C6C656400A6
:1029900010B50449FEF7A2F9BDE810400148FEF762
:1029A00086B9000078080020124B694600F5805275
:1029B0008A421A6001D8114670471960704730B5D5
:1029C0000C4D6B46A3F580532C6822449A420FD8D5
:1029D0009B1A02F5805003EBD37302EB630398421A
:1029E00000D91846C01D20F007020C60101B2A6099
:1029F00030BD0000D80000207047000010B5FFF780
:102A0000D1FA001D10BD00BF8145000070B505461C
:102A10000C460A2000E06D1CFFF7B6FA35B12878A5
:102A20000028F8D102E0641CFFF7AEFA14B1207858
:102A30000028F8D1BDE870400A20FFF7A5BA0000D1
:102A400010B5002102A0FFF7E1FF012010BD00003A
:102A5000534947414252543A2041626E6F726D6150
:102A60006C207465726D696E6174696F6E00000030
:102A700010B5014602A0FFF7C9FF012010BD0000FC
:102A800053494752545245443A205265646972652D
:102A900063743A2063616E2774206F70656E3A200C
:102AA0000000000010B5012805D0002103A0FFF7A9
:102AB000ADFF012010BD09A1F8E7000053494752BE
:102AC000544D454D3A204F7574206F6620686561FE
:102AD00070206D656D6F7279000000003A204865C6
:102AE0006170206D656D6F727920636F72727570A1
:102AF000746564005FEA400C08BF91F0000F4FEA74
:102B00008C234FEAC12243EA51514FEA1C5018BFAF
:102B100000F5F0404FEA300018BF41F000415FEA95
:102B20006C5C00F02980BCF1FF3F08BF40F08040A2
:102B30007047130C06BF12044FF0100C4FF0000C3E
:102B4000130E04BF12020CF1080C130F04BF120184
:102B50000CF1040C930F04BF92000CF1020CD30F84
:102B600004BF52000CF1010C11464FF00002A0F11D
:102B70001F00A0EB0C00704711F0004F08BF70471A
:102B800031F000413FF4D5AF0B0C06BF09044FF004
:102B9000100C4FF0000C0B0E04BF09020CF1080CD6
:102BA0000B0F04BF09010CF1040C8B0F04BF89004B
:102BB0000CF1020CCB0F04BF49000CF1010CCCF15D
:102BC0002003A0EB0C0022FA03F302FA0CF241EA14
:102BD000030100F10100704720F07F4C80EA030000
:102BE00023F07F47ACEB070303F57C5300F0004074
:102BF00003F1FF032DE980494FEA154B09B44FEA71
:102C0000144325EA0B4E24EA03480FF2042606EB90
:102C1000132749083E785FEA320203FB0667C7F5CF
:102C2000000707FB06F64FEA54374FEAD64606F18F
:102C3000020607FB066CCCF1005C4FEA1C472CEA4D
:102C4000074C07FB06F40CFB06F504EB15464FEAB0
:102C5000961634BF00204FF000404FEAD13706FBF4
:102C600007FC4FEA1C4C0CFB0BF7D21B03FB0CF7C9
:102C700061EB07010CFB0EF7B0EB074072EB17425C
:102C80000CFB08F734BFA2EB0742B2EB074261EB43
:102C900017414FEA0C444FEA910706FB07FC4FEA45
:102CA0001C4C0CFB0BF7B0EBC74072EB573203FB2D
:102CB0000CF734BFA2EBC742B2EBC74261EB57310E
:102CC0000CFB0EF7B0EBC70072EB57720CFB08F76A
:102CD00034BFA2EBC702B2EBC70261EB5771039F8F
:102CE0004FEA816141EA921104EBCC044FEAD137FB
:102CF0004FEA826206FB07FC42EA90124FEA8060CC
:102D00004FEA1C4C0CFB0BF7D21B03FB0CF761EBDF
:102D100007010CFB0EF7B0EB074072EB17420CFB00
:102D200008F734BFA2EB0742B2EB074261EB174151
:102D30004FEA8C554FEA910704EB9C2406FB07FCF5
:102D40004FEA1C4C0CFB0BF7B0EBC74072EB573251
:102D500003FB0CF734BFA2EBC742B2EBC74261EBF7
:102D600057310CFB0EF7B0EBC70072EB57720CFB40
:102D700008F734BFA2EBC702B2EBC70261EB577191
:102D800015EB4C254FEA816141EA92114FEA8262CC
:102D90004FEAD13742EA901206FB07FC44F10004E7
:102DA0004FEA80604FEA1C4C0CFB0BF7D21B03FB75
:102DB0000CF761EB07010CFB0EF7B0EB074072EB71
:102DC00017420CFB08F734BFA2EB0742B2EB0742F5
:102DD00061EB174115EB1C154FEA813141EA924135
:102DE0004FEA823242EA90424FEA80304FEA0C7654
:102DF00044F1000448EA03434EEA0B484FF0000E4A
:102E0000B2EB080C71EB030724BF624639464EEB68
:102E10000E0E4FF0000B0018524149414BEB0B0BCB
:102E2000B2EB080C71EB03077BF1000B24BF624689
:102E300039464EEB0E0E4FF0000B0018524149413F
:102E40004BEB0B0BB2EB080C71EB03077BF1000BA8
:102E500024BF624639464EEB0E0E51EA020718BFF8
:102E600046F0010616EB0E7655F1000254F1000112
:102E700003D5BDE88901BDE80088BDE88901BDE84A
:102E80000048B619524141EB0101A3F1010370471B
:102E900080807F7E7D7C7B7A797877767675747397
:102EA000727171706F6E6E6D6C6C6B6A6A69686856
:102EB000676666656464636362616160605F5F5EEC
:102EC0005E5D5D5C5C5B5B5A5A5959585857575662
:102ED00056555555545453535252525151505050C7
:102EE0004F4F4F4E4E4D4D4D4C4C4C4B4B4B4A4A19
:102EF0004A4949494848484747474746464645455D
:102F00004544444444434343434242424241414195
:102F1000002B9C4630D477002BD01CB54FEA3707E6
:102F200003B44FF010004FF01001BAF1000F06D0BB
:102F3000BCF1000FDCBF40F0080040F008014FF08A
:102F400000000FBCBDE810400BF1010BBBF1010FFD
:102F500008BF5FEA170722BF12F1010211F1010158
:102F60004FF0004143F1000300F0004043EA00004D
:102F70007047F9D35708D0E746EA064613F1400FE9
:102F80004FEA16461FDD13F1200FDFBF16430A4636
:102F9000002120335B42BED0C3F1200746EA06463B
:102FA00002FA07F74FEA164646EA0706C3F120077A
:102FB00022FA03F201FA07F721FA03F14FF00003B6
:102FC00042EA0702A7E746EA020646EA06464FEA51
:102FD000164646EA0106BCBF46EA0646360C4FF0E6
:102FE00000034FF000024FF0000194E72DE9804C00
:102FF0009A46934670B491E8380007C831EA400C0D
:1030000048BF34EA430C03D5FFF7E6FDFFF780FF26
:10301000F0BCBDE8008C2DE9804C9A46934670B414
:1030200091E8380007C810F0804F08BF13F0804FB8
:1030300003D100F005F8FFF76BFFF0BCBDE8008C92
:1030400020F07F4780EA030023F07F4C07EB0C035E
:10305000A3F57C5300F00040A3F1FE0392F0000FB3
:1030600000F0B38095F0000F00F077802DE9014962
:103070004FEA11404FEA144621EA004800FB06FCE3
:1030800024EA064708FB06F607FB08F800FB07F7EB
:1030900018EB06484CEB164C4FEA124B18EB07485E
:1030A0004FEA15464CEB174022EA0B4E0BFB06FC91
:1030B00025EA06470EFB06F607FB0EFE0BFB07F79D
:1030C0001EEB064E4CEB164C4FF000061EEB074E67
:1030D0004CEB174B18EB0B0840F1000018EB0E0BF4
:1030E00058EB000840F100008F1A4FF000013CBF80
:1030F000C943661B14BFB5EB040C00213CBFC94398
:10310000F61B4FEA17444EEA8E0E27EA04454FEAB3
:103110001C4704FB07622CEA074C05FB07F70CFB76
:1031200005F604FB0CFC16EB074642EB174216EBC8
:103130000C4642EB1C421BEB060658EB02024141D7
:1031400046EA9E0601D5BDE80189B619524141EB18
:103150000101A3F10103BDE801894FEA14454FEADB
:10316000114724EA054621EA074C05FB07F406FB54
:1031700007F70CFB06F105FB0CFC11EB074144EBD8
:1031800017444FEA124711EB0C4144EB1C4422EA6E
:10319000074C05FB07F206FB07F70CFB06F605FBE1
:1031A0000CFC16EB074642EB174216EB0C4642EBC3
:1031B0001C456A1854F1000148BF7047B6195241C6
:1031C00041EB0101A3F10103704795F0000F37D0E7
:1031D0004FEA11424FEA144721EA024624EA074C1B
:1031E00002FB07F106FB07F70CFB06F402FB0CFCE5
:1031F00014EB074441EB17414FEA154714EB0C441D
:1032000041EB1C4125EA074C02FB07F506FB07F7DB
:103210000CFB06F602FB0CFC16EB074645EB1745CC
:1032200016EB0C4645EB1C42121951F1000148BF48
:103230007047B619524141EB0101A3F101037047F8
:103240004FEA14454FEA114724EA054621EA074CA4
:1032500005FB07F106FB07F70CFB06F24FF0000633
:1032600005FB0CFC12EB074241EB174112EB0C4241
:1032700051EB1C4148BF7047921841EB0101A3F18B
:103280000103704710B503F071FABDE8104003F078
:10329000BBB80021C16070470F4910B54FF0927064
:1032A00048640E4C04F1140000F0C2FA0D490C48B9
:1032B00004F1080208600021084600F039F80022F5
:1032C0001146022000F014FB04F10C0000F0A2FBF8
:1032D00006490548086010BD00800440B871000030
:1032E00080F0FA020C000020000E27076800002082
:1032F000074810B5016829B1054A06485268BDE87B
:103300001040104740F21F52034904A0FDF79EFDF4
:103310002C00002000400240F87F0000735F666CC4
:10332000657863616E48616E646C655B305D00005A
:1033300070B514000D4611D000F0B8FA21462846A9
:1033400000F01CFB0848017821F0C0010170817970
:10335000C1F381010329FAD1002070BD40F25D6202
:10336000024903A0FDF772FD00400640507E0000B8
:10337000636F6E666967000010B5A0B1417801F017
:103380001F020C490A7183784A7963F304024A7177
:103390000A790078104340F040000871887910F0F5
:1033A000400FFBD010BD4FF45272034903A0FDF74C
:1033B0004DFD000000400640507E0000636F6E66C9
:1033C00069670000154810B50068C0F381411448D2
:1033D00039B1022918D0032904BF4FF47A7010BD07
:1033E0000AE01049097811F0800F05D0806828B1F3
:1033F000B0F5004F08BF10BD002010BD40F26512AF
:1034000009490A48FDF722FDC068002818BF10BD11
:1034100040F27912044906A0FDF718FD007004403F
:103420000400002000500640507E0000D836000006
:10343000675F7874616C333246726571000000001A
:10344000234A10B5907910F0100F22481CBF006875
:1034500010BD117B11F0030106D001290BD0022908
:1034600008BF1D4809D024E0806830B9D4221B4928
:103470001B48FDF7EBFCC068B0B111785378C1F37D
:10348000C201C840127BC3F3011302F0030203B16F
:1034900012B1022A18BF10BD08290AD2DFE801F0D4
:1034A0000B0B0B0B0B0B0D12D9220C490D48FDF722
:1034B000CDFC002010BD400910BD0B49A1FB001040
:1034C000000910BD0949A1FB0010C00810BD000093
:1034D0000040064004000020006CDC02507E00002A
:1034E000D836000030340000CDCCCCCCABAAAAAA90
:1034F00010B5142852D2DFE800F00A0A121C26A4E4
:1035000030486AA4A47B879BB9A4A4A4BDBF00F0E3
:10351000E9F85B49496C012202EB11711AE000F0F5
:10352000E1F85749496CC1F30361491CB0FBF1F064
:1035300010BD00F0D7F85249496CC1F30351491C42
:10354000B0FBF1F010BD00F0CDF84D49496CC1F36E
:103550000341491CB0FBF1F010BD49484068C0F37D
:10356000014020B101286ED003286DD069E0454CA0
:10357000607810F0020F04BFA07910F0200F60D126
:10358000FFF75EFF002865D110BD3F480068C0F31B
:10359000814020B102280FD003286DD051E03B4874
:1035A000007810F0800F4CD039488068D0B1B0F569
:1035B000004F08BF10BD44E03548C068002818BF60
:1035C00010BD40F2791233493348FDF73FFC2F48D4
:1035D000007810F0800008BF10BD2D4880680028DA
:1035E00018BF10BD40F265122A492C48FDF72EFC89
:1035F000FFF726FF040024D000F074F8B4EBD00FDE
:103600009CBF204610BD1CE01E48017811F0020F3F
:1036100017D0817911F0010F02BF1D48006810BD5D
:10362000007A1B49C0F34200496821FA00F010BD3E
:10363000144C607810F0020F04BFA07910F0200F36
:1036400003D0002010BD11E014E0FFF7F9FE0028C0
:1036500008BF10BDE178E278C1F34111104BD209E7
:1036600003EB810131F81210484310BDBDE8104052
:1036700000F09AB80B4810BD4FF47A7010BD0000EE
:1036800000800440004006400070044000500640A6
:1036900004000020507E000030340000D8360000C6
:1036A00078710000006CDC020848007810F080009F
:1036B00008BF704706488068002818BF704710B5DB
:1036C00040F26512034904A0FDF7C0FB005006401C
:1036D00004000020507E0000675F7874616C304603
:1036E0007265710010B5294CA079C0F3810151B108
:1036F0002748012920D002292AD0032932D1BDE848
:10370000104000F051B8607810F0020F04BFA079AB
:1037100010F0200F26D1FFF793FE002808BF10BD40
:10372000E178E278C1F341111A4BD20903EB810130
:1037300031F81210484310BDA17911F0010F04BFF8
:10374000006810BD217A4068C1F34201C84010BD35
:10375000217B11F0030107D001290ED0022904BFFB
:103760000D4810BD002010BD8068002818BF10BD96
:10377000D4220A490A48FDF769FBC068002818BF2F
:1037800010BDD92205490748FDF760FB00400640FF
:103790000400002078710000006CDC02507E000004
:1037A000D836000030340000184910B5887910F080
:1037B000400008BF10BD087B10F0030214480BD076
:1037C000012A10D0022A08BF12480ED040F27E22F1
:1037D000114912A0FDF73AFB806830B9D4220E4996
:1037E0001148FDF733FBC06858B10A79497902F0F6
:1037F0001F02521CB0FBF2F001F01F0118314843C8
:1038000010BDD92204490948FDF720FB00400640BD
:1038100004000020006CDC02507E00006D636770C5
:103820006C6C30636C6B0000D836000030340000E4
:10383000016849F69702914298BF002104D9184ABD
:10384000914294BF01210221164A037992F800C0E7
:103850002CF00F0C4CEA03031370137890F806C099
:1038600023F0A0034CEA03031370437921F0704165
:1038700043EA011101F03C030B4991F801C02CF01F
:103880003C0C43EA0C034B70407900281ABF1078B7
:1038900010F0800F7047887910F0020FFBD070474E
:1038A00000127A0000500640004006400F490A7B93
:1038B00002F00302824214BF012200220B7B60F35C
:1038C00001030B7338B9487810F0040F03D08879DE
:1038D00010F0020FFBD032B100BF00BF40F2D95050
:1038E00000BF401EFCD20020704700000040064090
:1038F000214B30B493F806C0CCF3810493F806C092
:103900001D7A0CF0010CC5F34205AA421FD0BCF190
:10391000000F12D0012C04D093F800C01CF0020F4D
:103920000BD093F801C02CF0010C83F801C000BF4C
:1039300093F806C01CF0010FFAD193F808C05200AA
:103940002CF02F0CC2F342024CEA42021A725A784F
:1039500061F300025A701A7860F301021A70012CA8
:1039600002D010F0020F04D0987900F001008842D4
:10397000FAD130BC002070470040064010B5002945
:1039800035D02148427822F002024270027822F0BB
:10399000C40242F080020270827902F01C02082AFE
:1039A000FAD1427922F040024271827912F0200F5E
:1039B000FBD111B34A7802F01F0202718B78427971
:1039C00063F30402427102790978114341F0400126
:1039D0000171817911F0400FFBD0417941F0400134
:1039E0004171817911F0200FFBD0002010BD40F211
:1039F000BE5206490648FDF729FA4FF452720349B0
:103A00000348FDF723FA000000400640507E000006
:103A1000BC330000074942684A6402784B6862F38D
:103A200011434B60044940780A6860F393420A608E
:103A300070470000008004400070044001480068A6
:103A400000F05CB8E80000200148806A00F056B839
:103A5000E80000200148C06A00F050B8E8000020EB
:103A60000148006B00F04AB8E80000200148406BB4
:103A700000F044B8E80000200148806B00F03EB838
:103A8000E80000200148C06B00F038B8E8000020D2
:103A90000148406800F032B8E80000200148806822
:103AA00000F02CB8E80000200148C06800F026B8FB
:103AB000E80000200148006900F020B8E80000207C
:103AC0000148406900F01AB8E80000200148806908
:103AD00000F014B8E80000200148C06900F00EB8FA
:103AE000E80000200148006A00F008B8E800002063
:103AF0000148406A00F002B8E800002010B528B183
:103B00008268017CD177C36833B110E040F23A3269
:103B1000254926A0FDF79AF9D0F800C0BCF1000FA6
:103B200005D041680023BDE8104001226047017CB8
:103B300041F2180C82680CEB411C52F80CC041F2A7
:103B40001C0404EB4111515AC1F3C012ACEB030148
:103B5000490972B190F91130C9B28B420FD190F975
:103B6000133090F914C0634514BF002390F913304B
:103B70000CE0002908BF90F91410491EEAE790F9FB
:103B80001130CB1A44BF90F914C063444174C17C16
:103B9000C91AC174D0F800C0BCF1000F08BF10BD35
:103BA0004168BDE8104060476C7F000068616E644A
:103BB0006C6520213D204E554C4C00000248024AC5
:103BC0000168D268014810471C00002000000C402A
:103BD0000248024A01689268014810471C00002010
:103BE00000000C400248024A016852680148104730
:103BF0001C00002000000C4010B508480849C2789D
:103C0000096812F0100F074A05BF837813F0200FE0
:103C1000126852689047BFF34F8F10BD0060064096
:103C2000280100203400002010B508480849C27857
:103C3000496812F0100F074A05BF837813F0200F70
:103C4000126852689047BFF34F8F10BD0070064056
:103C5000280100203400002010B508480849C27827
:103C6000896812F0100F074A05BF837813F0200F00
:103C7000126852689047BFF34F8F10BD00600E402E
:103C8000280100203400002011F0400F03D082787A
:103C900042F04002827011F0200F08BF7047817916
:103CA00021F0500141F020018171704710B50146AB
:103CB000084A002052F820308B4203D0401C0328D1
:103CC000F8D302E0032838BF10BDB522024903A093
:103CD000FDF7BCF85C72000088800000696E7374A8
:103CE000616E6365203C2046534C5F464541545508
:103CF00052455F534F435F4932435F434F554E54E4
:103D00000000000010B540B107494160002141703A
:103D1000817001720121017010BD40F2212203491E
:103D200003A0FDF793F80000A08601008880000042
:103D30006D6173746572436F6E66696700000000A1
:103D40000146C0788A7912F0400F18BF40F48040D5
:103D5000897911F0100F18BF40F4805070470000AF
:103D60002DE9F05F00291EBF002A0023DFF808C1FB
:103D700008D000BF5CF82350854209D05B1C032BA0
:103D8000F8D307E04FF4ED723C493DA0FDF75EF833
:103D9000032B04D3B52239494048FDF757F8DFF823
:103DA00000C15CF823C03F4B03EB1C431C684FF081
:103DB000010A0AFA0CFC44EA0C0CC3F800C0837830
:103DC00023F080038370837943F0500383718379F8
:103DD00043F0500383711223C3704FF00008DFF8E3
:103DE000C8B04F684FF0FF354646C4460AFA0CF992
:103DF0005FF000033BF8134004FB09F4B2FBF4F45A
:103E0000A7428CBF3C1BE41BAC4203D2E0461E46DB
:103E1000250003D05B1CDBB2402BEBD30CF101037C
:103E200003F0FF0CBCF1020F01D8002DDED14FEAE8
:103E30008812C2F3811262F39F16467042794B7862
:103E400022F020025B01C3F3401342EA43124271A5
:103E500082798B7822F0800223F07E4342EAC312FB
:103E60000B7A22F00F0203F00F031A4382710978D4
:103E7000C9018170BDE8F09F5C720000888000007D
:103E80006D6173746572436F6E66696720262620C4
:103E9000737263436C6F636B5F487A00DC3C0000B5
:103EA0006872000000700440DC710000827800231A
:103EB0004FF6FF7122F038028270C27812F0200FA4
:103EC00004D0491E0904090CF7D100E009B94FF4E8
:103ED0008A63184670470000F0B44FF0000CC478B5
:103EE00014F0800FFBD00225C570847844F01004D4
:103EF0008470541E28BF10261ED300BF11F8012B5A
:103F00000271C27812F0020FFBD0C278C57012F0B5
:103F1000100F1CBFC67040F24F4C12F0010F18BFBB
:103F2000002C04D00121C17040F24E4C04E0BCF1E1
:103F3000000F01D1641EE1D203F0040151EA0C012B
:103F40001CBFACF58061B1F14E0114D1C57082780F
:103F50004FF0000C4FF6FF7122F038028270C278E9
:103F600012F0200F04D0491E0904090CF7D100E01B
:103F700009B94FF48A6CF0BC60467047074810B529
:103F8000416829B1074A06485268BDE81040104709
:103F90004FF48462044905A0FCF758FF4400002058
:103FA00000F002403C0000202C820000735F73612F
:103FB0006948616E646C655B305D5B315D0000007B
:103FC000074810B5016829B1074A06481268BDE8DC
:103FD0001040104740F21A42044905A0FCF736FF92
:103FE0004400002000F002403C0000202C82000031
:103FF000735F73616948616E646C655B305D5B30F3
:104000005D000000F0B4EFF3108572B6114E336816
:10401000114A934213D0DFF844C00023ACEB020CEA
:10402000B3EB9C0F38BF0E4C08D200BF54F823707E
:1040300042F823705B1CB3EB9C0FF7D3326002EBAA
:104040008000002D01641CBFF0BC704762B6F0BC5C
:104050007047000008ED00E00000FF1F0004FF1F94
:104060000000000008B50421684602F09DF808BD74
:1040700010B541B1144A1268824209D0482213494E
:1040800013A0FCF7E3FE4F2210491BA0FCF7DEFE55
:104090001B4A1C4B126803EB1243D3F800C00124E7
:1040A00004FA02F24CEA02021A60026822F00202EA
:1040B000026009780029016814BF21F0010141F074
:1040C0000101016010BD0000747200001481000045
:1040D000696E7374616E6365203C2046534C5F4685
:1040E0004541545552455F534F435F5049545F43D8
:1040F0004F554E5400000000636F6E666967000004
:10410000787200000070044010B530B100210170D9
:10411000417081704160816010BDF122014902A0AF
:10412000FCF794FEA0810000636F6E666967000073
:1041300010B5002937D01E4A13684FF0010C43F028
:10414000005313601B4A536913F0010F09D0136920
:1041500043F001031361136923F001031361C2F8F3
:1041600000C002694B784FF0080C0CEAC30391F8C9
:1041700002C0042404EA8C0C43EA0C0322F00C0273
:104180001A430B784FF0100C22F010020CEA0313C4
:104190001A4302614A684FF47F43097A03EA022214
:1041A0001143C16010BDD222034904A0FCF74EFEAA
:1041B0003C80044000D00340A0810000636F6E6625
:1041C00069670000074810B5016829B1054A06482B
:1041D0005268BDE8104010474FF4A962034904A09B
:1041E000FCF734FE4C00002000100B40B8820000A9
:1041F000735F7364686348616E646C655B305D0017
:104200000B4810B5016841B10A480268D30F0A4A49
:1042100009D01268BDE81040104740F257620749C4
:1042200007A0FCF713FE5268BDE8104010470000DD
:10423000DC00002000C0024014000020E07E0000EE
:10424000675F6473706948616E646C655B305D00C4
:104250000B4810B5416841B10A480268D30F0A4AB9
:1042600009D01268BDE81040104740F25F6207496C
:1042700007A0FCF7EBFD5268BDE8104010470000B6
:10428000DC00002000D0024014000020E07E00008E
:10429000675F6473706948616E646C655B315D0073
:1042A0000B4810B5816841B10A480268D30F0A4A29
:1042B00009D01268BDE81040104740F26762074914
:1042C00007A0FCF7C3FD5268BDE81040104700008E
:1042D000DC00002000C00A4014000020E07E000046
:1042E000675F6473706948616E646C655B325D0022
:1042F0000748016841F47001016006484CF2205102
:10430000C1814DF62811C1814FF4E97101807047D8
:1043100088ED00E0002005400248044A0168126868
:10432000014810473401002000A00640540000203E
:104330000248044A416812680148104734010020CD
:1043400000B00640540000200248044A8168126808
:10435000014810473401002000C0064054000020EE
:104360000248044AC168126801481047340100201D
:1043700000D00640540000200248044A0169126837
:10438000014810473401002000A00E4054000020D6
:104390000248044A4169126801481047340100206C
:1043A00000B00E4054000020427922F0C00242EAE0
:1043B000112242710A0E827411F0170F1CBF02798C
:1043C000C27911F0080F05D00279C279427C42F01F
:1043D000400242740279437942EA0322037B807CE3
:1043E00042EA034242EA0060084018BF40F2EE3061
:1043F0007047000010B558B14FF4E1310160002161
:104400000171417181710122C2710172417210BD4D
:1044100040F25D12014902A0FCF718FD4483000040
:10442000636F6E666967000010B502460621094B8E
:10443000002000BF53F820C094451CBF401C884298
:10444000F8D3884238BF10BDA922034903A0FCF766
:10445000FDFC00008472000044830000696E7374E8
:10446000616E6365203C207561727441727261797E
:10447000436F756E740000000179427941EA0221B0
:10448000027B807C41EA024141EA00607047000003
:104490002DE9F047002926D0D1F800C0BCF1000F6B
:1044A00026D0654D654E664F664B674CDFF89C81A4
:1044B000A84214BFB0424FF008090BD0B84218BF51
:1044C000984205D0A0421CBF40454FF0FF3901D1B2
:1044D0004FF0010991F806A0D1450EDAD7225C49C8
:1044E0005CA0FCF7B3FCD42259496AA0FCF7AEFCEF
:1044F000D522574969A0FCF7A9FCA84214BFB042D5
:1045000008230AD0B84218BF984205D0A0421CBF69
:1045100040454FF0FF3300D10123CC79A34204DAA8
:10452000D8224B4963A0FCF791FC4FEA0C13B2FB75
:10453000F3F31B041B0C08BF01235200B2FBFCF475
:104540005D4204EB4514A7B207EB4314B2FBF4F24F
:10455000944534BFA2EB0C02ACEB0202654CA4FB09
:104560000C4C4FEA5C1C0CEB4C0C94453CBF40F2ED
:10457000F530BDE8F0874FF0060C5F4C002200BF1D
:1045800054F8226086421CBF521C6245F8D3624533
:1045900004D3A9222E495948FCF758FCDFF860C122
:1045A0005CF82220DFF85CC10CEB124CDCF8004018
:1045B000012505FA02F22243CCF80020C27822F04D
:1045C0000C02C270027822F01F0242EA132202702B
:1045D0004370827A67F30402827282780B7922F048
:1045E0001302002B1CBF42F010021A4382700278A3
:1045F0004B7922F020025B01C3F3401342EA4312DD
:1046000002708A79C274CA794275027C42F08802CB
:104610000274427C42F0C0024274C2780B7A002BD2
:1046200018BF42F00802497A002918BF42F004027C
:10463000C2700020BDE8F08700A0064000B0064030
:1046400000C0064000D0064000A00E4000B00E4062
:104650004483000046534C5F464541545552455FE4
:10466000554152545F4649464F5F53495A456E285B
:104670006261736529203E3D20636F6E6669672D18
:104680003E74784669666F57617465726D61726BCE
:1046900000000000636F6E6669670000636F6E66FE
:1046A00069672D3E62617564526174655F42707323
:1046B0000000000046534C5F464541545552455F4B
:1046C000554152545F4649464F5F53495A456E28FB
:1046D0006261736529203E3D20636F6E6669672DB8
:1046E0003E72784669666F57617465726D61726B70
:1046F000000000001F85EB51847200005C44000044
:104700009C7200000070044010B5002934D00B01E9
:10471000B2FBF3F31B041B0C08BF01235200B2FBD6
:10472000F1FC5C420CEB441C1FFA8CFC0CEB4314B8
:10473000B2FBF4F28A428CBF521A8A1A114CA4FBC3
:104740000141490901EB410191429CBF40F2F53022
:1047500010BDC178C27822F00C02C270027822F03B
:104760001F0242EA132202704370827A6CF3040241
:104770008272C170002010BD4FF4B772024903A0CD
:10478000FCF764FB1F85EB51448300006261756494
:10479000526174655F42707300000000002901DD02
:1047A0000A4600E00122027570474182018270478B
:1047B0002DE9FC4104460D4616461F46DDF82080D3
:1047C000F019401E00B2CDE9000820682B463246A1
:1047D0002946D0F804C02046E047BDE8FC812DE919
:1047E000FE4F04460D46A069C0BB0A2D08D1E189E1
:1047F000207D01EBC00000B2E0810020A0818CE0B0
:104800000D2DFCD0A07D90B1B4F90C00217D01EB01
:10481000410100EB4100B4F90810884207DB002099
:10482000A081E189207D01EBC00000B2E081217D03
:10483000608A228ACDE900200291B4F90E20B4F9F1
:104840000C102B46204600F06BF8A089217D01EB6F
:10485000410100EB410000B2A0815EE0FFE70A2DBC
:104860000BD10020A081B4F90E10207DA269927AAC
:1048700010FB021000B2E0814FE00D2D4DD0A06979
:1048800090F80880454547DBA069407AA84243DBA1
:10489000A069007A281A00F0FF09A069406800EBBF
:1048A000C906B77896F803A0002F2CDDBAF1000FE7
:1048B00029DD70794FFA80FBA07DA8B1B4F90C0016
:1048C000217D0BEB070201FB0200B4F908108842BE
:1048D0000ADB0020A081B4F90E00217DA269927A42
:1048E00011FB020000B2E081207D618A228ACDE9BD
:1048F00000210290B4F90E20B4F90C102B4620468A
:1049000000F00EF800BFB4F90C003179227D11FBE4
:10491000020000B2A08100BF00BF0120BDE8FE8FF1
:104920002DE9F04F8DB005460E4617469A46189C65
:10493000A86900287ED1B5F90800B0420FDDB5F9AD
:104940000A00B8420BDD062000FB0460401E002870
:1049500005D4082000FB0470401E002802D50DB0CD
:10496000BDE8F08F4FF000085FE0B8F1050F06DA00
:104970000AEB8A006C49084410F808B001E04FF0D7
:10498000000B4FF0000949E00BF00100F0B1012CE1
:104990000CD107EB090002B206EB080001B228684F
:1049A000D0F800C02846169BE04731E01698CDE9C4
:1049B000004009FB047002B208FB046001B22868E1
:1049C0002346D0F814C02846E04721E0DDE9161060
:1049D00088421DD0012C0CD107EB090002B206EB76
:1049E000080001B22868D0F800C02846179BE047AD
:1049F0000EE01798CDE9004009FB047002B208FBF5
:104A0000046001B228682346D0F814C02846E04765
:104A100009F101004FFA80F94FEA6B0BB9F1080F69
:104A2000B2DB08F101004FFA80F8B8F1060F9CDB09
:104A300078E0FFE7A869007AAAEB000000F0FF0A1F
:104A4000A869406800EBCA08A86900680C90B8F82B
:104A500000000B9098F802000A9098F80300099063
:104A600098F80400089098F8050040B2079098F86C
:104A7000060040B2069000200490012C03DD079848
:104A80000390069802904FF0000947E04FF0000BAA
:104A90003DE00498411CC9B200F00700049130B910
:104AA0000B98411C89B20B910C99085C05900598F4
:104AB00000F0800018B3012C0ED106983844484409
:104AC00002B207983044584401B22868D0F800C0B8
:104AD0002846169BE04712E01698CDE90040029860
:104AE000484400FB047002B20398584400FB046081
:104AF00001B228682346D0F814C02846E04705983C
:104B00004006000E05900BF1010000F0FF0B0A9823
:104B10008345BEDB09F1010000F0FF0909988145DA
:104B2000B4DB00BF00BF1AE7507500002DE9FC5F41
:104B300082460C4615461E460C9F791B002901DB58
:104B40000A4600E04A42301B002801DB034600E031
:104B500043429A4201DD012200E0002201920198C5
:104B600030B120462C46054630463E46074600BF3B
:104B7000B44206DD20463446064628463D460746F2
:104B800000BF301B0FFA80F8781B002801DB0146BC
:104B900000E0414209B20091404608EBD071491053
:104BA0000FFA81F9BD4202DA4FF0010B01E04FF03C
:104BB000FF3B25E0019848B1DAF80000D0F800C0CA
:104BC0002246294650460D9BE04708E0DAF80000EF
:104BD000D0F800C02A46214650460D9BE047009879
:104BE000A9EB00000FFA80F9B9F1000F06DA05EB26
:104BF0000B0005B209EB08000FFA80F9601C04B243
:104C0000B442D7DDBDE8FC9F2DE9F84F06460C46BF
:104C100090461F46DDE90A9A25460BE0CDF800A034
:104C200030684B4642462946D0F808C03046E04737
:104C3000681C05B2E019A842F0DCBDE8F88F81815C
:104C4000C28170470B4B03608180C28083880381DF
:104C5000C3884381002343758381C3810123037586
:104C60004FF6FF7343820382012383750023836120
:104C700070470000847B000001464A7C0B2A02D06A
:104C8000162A12D105E0887C00EE100AB8EEC00AA0
:104C90007047887C0002CA7C10440A2290FBF2F024
:104CA00000EE100AB8EEC00AF2E79FED010AEFE746
:104CB0000000000090ED020A7047000001464A7CA7
:104CC0000B2A02D0162A19D105E0087D00EE100A41
:104CD000B8EEC00A70470A7D02F07F0000024A7DEC
:104CE00010440A2290FBF2F00A7D02F0800202B129
:104CF000404200EE100AB8EEC00AEBE79FED010A51
:104D0000E8E700000000000000B50246012907D1D5
:104D1000D2ED010AB0EE600A104600F019F800BDAD
:104D2000022907D1D2ED010AB0EE600A104600F068
:104D300005F8F4E792ED010AF1E70000F0EE400A11
:104D40009FED020A30EE800A7047000033938843DB
:104D5000F0EE400AB2EE020A20EE800AF1EE041AEA
:104D600080EE211A9FED020A31EE000A7047000022
:104D7000000000422DE9F04180460C4615461E46D3
:104D8000002708E0B74202DD0720BDE8F0817F1C64
:104D9000012002F0D7F8204600F0A9F9A842F1D08E
:104DA0000020F2E72DE9F04FABB0044600250026C5
:104DB000A846AA46A02103A8FCF724F900200290E7
:104DC00001F07EFF834601AF0020D4F80C900190E3
:104DD0004946384601F0E8F900BFFA23002201A94C
:104DE0002046FFF7C7FF18B101202BB0BDE8F08FB8
:104DF00001AF01F09FF80121384601F099F901F067
:104E0000DFF800BF002101A800F066F9122002F0CF
:104E10008BF8012101A800F05FF91E2002F092F842
:104E200000BF01F087F80021384601F081F901F058
:104E3000C7F800BF6423012201A92046FFF79AFFAB
:104E400008B10220D1E76423002201A92046FFF720
:104E500091FF08B10420C8E76423012201A920467C
:104E6000FFF788FF08B10720BFE7002524E00026F0
:104E70001EE04B23002201A92046FFF77BFF08B16B
:104E80000520B2E7282002F05DF801A800F02FF914
:104E900006EBC50103AA42F821003223012201A931
:104EA0002046FFF767FF08B105209EE7701CC6B2D9
:104EB000082EDEDB681CC5B2052DD8DB00251BE003
:104EC0004FF0000800260FE006EBC50003A951F8DB
:104ED0002000012806D1C6F10701884040EA0800F9
:104EE00000F0FF08701CC6B2082EEDDB04F11200C2
:104EF00000F80580681CC5B2052DE1DBA17CE07CD3
:104F00000144207D0144607D084400F0FF0AA07D3B
:104F100050450CD1C4F800B02046FFF7CFFE84ED19
:104F2000010A2046FFF7A8FE84ED020A01E00620F0
:104F30000290029859E7C1604274012303747047DC
:104F4000704770B504460D4600BF2946204601F063
:104F500083F900BF204670BD10B50C464C3001F0FF
:104F600067FE204610BD000010B500EB011000F5F3
:104F70008474D0F8140128B940F21F22044905486E
:104F800001F05EFBE06801682046BDE8104008477C
:104F9000557D0000507D000070B504464C3001F096
:104FA000D5FD054600F47C51606C002818BF00292F
:104FB00004D004F13802036810469847626B05F08C
:104FC000FC01002A14BF002970BD04F128001268FA
:104FD000BDE87040104700002DE9F04790460446B8
:104FE000364A84B034481E4689462060D2E902130E
:104FF0000022A160E3603249216148F2070161614A
:10500000E261A46104F1080121622E496162BFF3EB
:105010006F8FBFF34F8F00206063606484F8480097
:1050200084F84900BC2104F14C00FBF7EBFF02239C
:105030001022254904F5847000F06AFDDFF88CA089
:10504000A0F584750027066205EB071000F584744F
:105050006E461F48CDF80CA00090B4420DD0E16818
:10506000204600291CBF89688847039818B1426808
:105070003146204690470398E0600399684600292E
:105080001CBF896888477F1C022FDDD342464946F2
:1050900005F14C0001F0B8FC05F14C00D5F82811E1
:1050A00001F09AFC2A460B4905F14C0001F042FD43
:1050B00004B02846BDE8F087DC7B0000507A000091
:1050C00001A090E80370000093320000447D0000CE
:1050D0003B550000694F000070B504460D4600BF07
:1050E0002946204601F0B8F800BF204670BD10B533
:1050F000044600BF204601F089F810BD70B5174C7A
:1051000005462068002804BF201D2060261DB042EF
:1051100004D059221249134801F092FA0021246860
:10512000114B1022084600BF53F821C0AC4508BF00
:1051300043F82100491C521EF6D10848002C04BF38
:10514000011D01600068B04208BF70BD5922BDE872
:1051500070400349034801F073BA00005800002072
:10516000E87C0000D47C00004C0100200021FBF70B
:105170003DBE000007480168002904BF011D016011
:10518000001D814208BF704759220349034801F0BE
:1051900057BA000090000020E87C0000D47C00009A
:1051A00010B504460068016820468847201D01F0BC
:1051B0001BF9206841682046BDE81040084710B53B
:1051C00004460068016820468847201D01F0F6F873
:1051D000206841682046BDE81040084770B5044685
:1051E00000680D460268204690472946201D01F0C0
:1051F0005FF805462068416820468847284670BD0C
:1052000007480168002904BF011D0160001D81429B
:1052100008BF704759220349034801F011BA000042
:1052200090000020E87C0000D47C000010B504460B
:105230000648206000206060A0600548E060201DF6
:1052400001F04EF803480460204610BDF47B0000D6
:10525000A08601008C0000207047000010B51C469D
:10526000029BFFF7B9FE214600F5967000F076F834
:10527000A0F59670024901602031C0F82C1110BDD4
:105280000C7C000010B5124901602031C0F82C11CF
:1052900000F5967000F082F8A0F596740D48206035
:1052A000022310220C4904F58470FBF725FF606C83
:1052B000383410B181682046884754F8040C103CFB
:1052C00010B1816820468847A4F1280010BD000075
:1052D0000C7C0000DC7B0000F16F000000207047B8
:1052E00000207047002070472DE9F0410546006816
:1052F0000F460C468E18816B28468847B4420AD068
:10530000286814F8011B026C28469047B0F1FF3F53
:1053100018BFB442F4D12868C16B28468847E01B07
:10532000BDE8F081002070470FB470B504460068F6
:10533000816B2046884706AD2069FBF7B8FC2A46FA
:1053400020690599FBF762FA05462068C16B204683
:105350008847284670BC5DF814FB000010B584B087
:10536000002200F061F80446094820600020206116
:10537000224608A16846FBF75BFA07A16846FBF7DF
:105380000EFD2061FFF7F2FE04B0204610BD0000C4
:105390007C7C00003A257000772B000010B5044695
:1053A000044820602069FBF72BFD2046BDE8104033
:1053B00000F05AB87C7C0000007B704770B5064650
:1053C0000D46154801F0F6FD14480468F4B1A068D4
:1053D000C8B12A463146FBF798FDA0B9A068FBF793
:1053E00075FDA8420FD10C480168002904BF011DBA
:1053F0000160001D814204D059220949094801F089
:105400001FF9204670BD6468002CE0D1024801F00D
:10541000D1FD002070BD0000C4000020C0000020AD
:10542000E87C0000D47C000070B504460B480026E0
:10543000A160C4E900060D462273094801F0BAFDD7
:10544000002D08BF666003D00648016861600460F3
:10545000034801F0AFFD204670BD0000CC7C000089
:10546000C4000020C000002010B504461048206091
:10547000104801F09FFDA06878B10F490868A0426C
:1054800004BF6068086008D04168A14203D00846A4
:105490004968A142FBD161684160064801F08AFD7C
:1054A000207B002804BF2046FFF728FE204610BDC1
:1054B000CC7C0000C4000020C00000207047704772
:1054C00010B50446406828B1FFF776FF002804BFF6
:1054D000606810BD002010BD4068002818BF012082
:1054E000704710B54068002808BF10BDFFF764FF83
:1054F00000280CBF0120002010BD10B5044600207C
:105500002060606008782F280DD1487858B14B1C76
:1055100000212360226810782F2806D038B1501C53
:10552000491C2060F6E7204610BD501C206018463C
:10553000FFF744FF6060204610BD704710B5044679
:105540004FF480610148FBF75DFD10BDCC030020E6
:1055500070B504460D4616460023324629462046BD
:1055600000F0C4F970BD2DE9F84304460D46164617
:105570001F46DDF820804FF0000994F8210030B17B
:10558000012805D0022810D0032824D119E022E0F8
:105590004FF00109284635460646A088401B401EAC
:1055A00005B2781E281A05B215E0A088401B401EDF
:1055B00005B2E088801B401E06B2781E301A06B283
:1055C00009E04FF00109284635460646E088801B71
:1055D000401E06B200BF00BFB9F1000F08D03B4625
:1055E000324629462046CDF8008000F00BF807E04F
:1055F0003B46324629462046CDF8008000F05EF852
:10560000BDE8F883F0B50546059F002A03DBB5F930
:105610000660964200DCF0BD002902DA5E1833B263
:105620000021CE18B5F904C0664502DDAE88761AB1
:1056300033B2002B00DCEEE71F4816464FEAE27C4F
:1056400002EB5C7C4FEAEC0C00EBCC10084402F05F
:10565000070C012606FA0CF6F4B287B1012F02D02E
:10566000022F26D119E003E00678264300F8016BEB
:105670001E1EA3F1010C0FFA8CF3F5D119E0E643DD
:10568000F4B203E00678264000F8016B1E1EA3F179
:10569000010C0FFA8CF3F5D10BE003E006786640BD
:1056A00000F8016B1E1EA3F1010C0FFA8CF3F5D16B
:1056B00000BF00BF00BFAEE7CC0300202DE9F047DC
:1056C00007468C461446089EBCF1000F03DBB7F971
:1056D0000480E04501DCBDE8F087002C04DA03EB30
:1056E00004080FFA88F3002404EB0308B7F90690C6
:1056F000C84505DDB7F80680A8EB04080FFA88F363
:10570000002B00DCE7E7E5B2D9B24948A8464FEAEA
:10571000E57905EB59794FEAE90900EBC9106044D6
:1057200005F0070282B3C2F1080909F0FF02DFF8B1
:10573000049119F80280914207DAA2EB010A4FF0B6
:10574000FF0949FA0AF909EA08085EB1012E02D0F8
:10575000022E15D10DE090F8009049EA080980F872
:1057600000900DE090F8009029EA080980F8009078
:1057700006E090F8009089EA080980F8009000BFE0
:1057800000BF914201DAA6E705E0A1EB020909F0AA
:10579000FF01803000BF082923DB022E0ED100BF9D
:1057A00090F800806FEA080880F800808030A1F14E
:1057B000080808F0FF010829F2DA12E0012E02D1F0
:1057C0004FF0FF0901E04FF00009C84600BF80F824
:1057D00000808030A1F1080909F0FF010829F6DAFC
:1057E00000BF11B301F00702DFF84C9019F80280F6
:1057F0005EB1012E02D0022E15D10DE090F800907E
:1058000049EA080980F800900DE090F8009029EA34
:10581000080980F8009006E090F8009089EA0809ED
:1058200080F8009000BF00BF00BF00BF53E700003A
:10583000CC030020790000208100002030B587B023
:1058400005460C468CB101210E48FFF77AFB01207A
:1058500001F06AFB00210B48FFF773FB0A2001F0FF
:1058600063FB01210748FFF76CFB1C2206A1684679
:10587000FBF796FB1A2269462846FFF769FE07B038
:1058800030BD000074000020AED580A83FD300409A
:105890008D142000A1C8DA1281CFD9F1DB40A4A673
:1058A0002EAF00001CB5044607A103C9CDE90001D5
:1058B000062269462046FFF74BFE4FF480620449FA
:1058C000204600F007F81CBD21007F2200070000E1
:1058D000CC03002070B504460D461646012332461F
:1058E0002946204600F002F870BD00002DE9F05F67
:1058F00083460F4615461E463C460EB1402000E04A
:1059000000208046002E29D02A48FFF758FC782135
:105910002848FFF763FC41462648FFF75FFC4FF03D
:10592000000915E021782348FFF758FC8246BAF1B8
:10593000010F0AD0204911B101F5967100E0002154
:10594000084652461DA1FFF7EFFC09F10109641C4E
:10595000A945E7D31748FFF723FC28E04FF00009DB
:1059600023E01448FFF72BFC78211248FFF736FCA0
:1059700041461048FFF732FC21780E48FFF72EFC15
:1059800082460C48FFF70CFCBAF1010F0AD00A4915
:1059900011B101F5967100E000210846524607A1B9
:1059A000FFF7C2FC09F10109641CA945D9D3BDE880
:1059B000F09F0000BC030020600200204932432019
:1059C0006572726F723A2025302E32640D0A000023
:1059D0002DE9F04707460D4614469946002D0BDB8E
:1059E000384600F06BF8A84206DD002C04DB384690
:1059F00000F068F8A04201DCBDE8F08797F82100CC
:105A0000012804D002280AD0032819D110E0284622
:105A100025460446B888401B401E05B210E0B888F1
:105A2000401B401E05B2F888001B401E04B207E070
:105A3000284625460446F888001B401E04B200BFD5
:105A400000BF2046E11704EB5171C91005EBC111ED
:105A5000114A8E1804F007010120884000F0FF0869
:105A6000B9F1000F0BD0B9F1010F03D0B9F1020F5A
:105A70000FD109E0307840EA0800307009E0307852
:105A800020EA0800307004E0307880EA08003070C6
:105A900000BF00BF00BFAFE7CC03002070B50446D5
:105AA0000D461646324629462046FFF7CBF80446F7
:105AB00001482060204670BDB07B00000146B1F96E
:105AC000080070470146B1F90A0070477047A0F519
:105AD0009670FFF741BA704703B4019841000098EF
:105AE00050EAC12018BF04204A0D18BF40F0010041
:105AF00040F2FF72B2EB515F08BF40F00200012894
:105B000008BF052002B07047FEF77CBA012070473D
:105B10002DE9F0411C4617460E00804607D0054689
:105B200002E02846B0473D442046641EF9D2404674
:105B3000BDE8F0810020FCF720BA000070B544F207
:105B40001802511C0948FFF771FB0446084A09492D
:105B5000FFF7DCFF084C43F20105002020602946D6
:105B6000204600F035FB00BF70BD0000BC030020E4
:105B700000000000595200007400002038B54FF4B6
:105B80001650002341F21002511C00900E48FFF7FE
:105B900065FB04460D4A0E49FFF7B8FF0B2242F29F
:105BA00010010C48FFF7C7F90446084A0A49FFF7F5
:105BB000ADFF0A4C41F21605002020602946204620
:105BC00000F006FB00BF38BD6002002000000000AE
:105BD00085520000A4030020414F00007000002007
:105BE00002486A4620F0070070470000EB080020DA
:105BF00030380A2801D2012070470020704710B5C4
:105C000000F0B5FD10BD00000328BCBF00207047A8
:105C100070B50446FAF786FD0921054601600C4877
:105C2000002200EB840151F80C0C41F80C2C0028E8
:105C300004BF4FF0FF3070BD01680969884701005B
:105C40005CBF002070BD494229604FF0FF3070BD3D
:105C50004C01002010B50446FAF764FD09210160EB
:105C6000032CBCBF002010BD074800EB840050F897
:105C70000C0C002804BF4FF0FF3010BD0168896A8A
:105C8000BDE81040084700004C01002070B50446F4
:105C9000FAF748FD092105460160032CBCBF01202D
:105CA00070BD0B4800EB840050F80C0C002804BFBA
:105CB0004FF0FF3070BD01688969884701005CBF03
:105CC000002070BD494229604FF0FF3070BD0000D8
:105CD0004C0100202DE9F04182B007465A49FBF7FC
:105CE000B9F95A4C48B35A493846FBF7B3F900287A
